:100000000C945D000C9485000C9485000C941E03E8
:100010000C9485000C9485000C9485000C942A02A5
:100020000C9456020C9403020C9485000C948500E9
:100030000C9485000C9485000C94AB010C94D701B2
:100040000C9484010C9485000C9482020C9485001D
:100050000C94AE020C9485000C9485000C948500E1
:100060000C9485000C9485000C9485000C948500FC
:100070000C9485000C9485000C9485000C948500EC
:100080000C9485000C9485000C9485000C948500DC
:100090000C9485000C9485000C9485000C948500CC
:1000A0000C9485000C9485000C9485000C948500BC
:1000B0000C94850019039D03D70311241FBECFEFB5
:1000C000D8E0DEBFCDBF11E0A0E0B1E0EAEDF7E09F
:1000D00002C005900D92A83CB107D9F724E0A8EC26
:1000E000B1E001C01D92A13BB207E1F710E0CDE500
:1000F000D0E004C02197FE010E94E503CA35D10774
:10010000C9F70E949B030C94EB030C945003DC0191
:1001100020E030E0FD01E20FF31F1686E85FFE4F9E
:1001200010822F5F3F4F2A3F3105A1F7CD010E9678
:1001300011969C938E9386509F4F13969C938E930B
:10014000129715961C921E92149717961C921E9247
:10015000169719961C921E9218971B961C921E9227
:100160001A971C961C921C971D961C9208950E942B
:1001700087000895FC01E60FF11D24852130E9F088
:1001800070E0660F771FFC01E60FF71F20853185B1
:1001900084819581281739073CF0808591852481D9
:1001A0003581821B930B089580859185248135814B
:1001B00086509F4F821B930B08958AEF90E008951D
:1001C000CF93DF939C0170E0FB01EE0FFF1FE80F60
:1001D000F91FC081D181DC01A60FB71F1C969C912D
:1001E000911124C080859185DC011196B187A0878B
:1001F000DE01A80FB91F4C93808591858A3F910538
:1002000019F08085918502C080E090E09187808719
:1002100040855185848195814817590749F4F90132
:10022000E60FF71F81E0848780E003C08FEF01C0F5
:1002300080E0DF91CF910895BF92CF92DF92EF924D
:10024000FF920F931F93CF93DF938C01B42EE62E72
:10025000F12CE701CC0FDD1FC80FD91FC880D98052
:100260000E94BA0018161906E4F4EC81FD81EC0D29
:10027000FD1D8081B11016C0F801EE0DFF1D148622
:100280002C813D812F5F3F4F3D832C832A3F3105D9
:1002900019F02C813D8102C020E030E03D832C83A9
:1002A00001C080E0DF91CF911F910F91FF90EF90FF
:1002B000DF90CF90BF900895DF92EF92FF920F935F
:1002C0001F93CF93DF937C01D62ED22F222391F060
:1002D000042F152FC0E002C081110BC0F80141911D
:1002E0008F016D2DC7010E94E000CF5FDC13F4CFBA
:1002F00001C0DC2F8D2FDF91CF911F910F91FF90C7
:10030000EF90DF90089508951F920F920FB60F920D
:1003100011242F933F934F935F936F937F938F930A
:100320009F93AF93BF93EF93FF93E0910801F091F8
:1003300009010995FF91EF91BF91AF919F918F9125
:100340007F916F915F914F913F912F910F900FBED1
:100350000F901F9018951F920F920FB60F921124B5
:100360002F933F934F935F936F937F938F939F93BD
:10037000AF93BF93EF93FF93E0910E01F0910F01C4
:100380000995E0910A01F0910B010995FF91EF9118
:10039000BF91AF919F918F917F916F915F914F919D
:1003A0003F912F910F900FBE0F901F9018951F92A5
:1003B0000F920FB60F9211242F933F934F935F9399
:1003C0006F937F938F939F93AF93BF93EF93FF931D
:1003D000E0910C01F0910D010995E0910A01F09175
:1003E0000B010995FF91EF91BF91AF919F918F9173
:1003F0007F916F915F914F913F912F910F900FBE21
:100400000F901F9018951F920F920FB60F92112404
:100410002F933F934F935F936F937F938F939F930C
:10042000AF93BF93EF93FF93E0910001F09101012F
:100430000995FF91EF91BF91AF919F918F917F911E
:100440006F915F914F913F912F910F900FBE0F9041
:100450001F9018951F920F920FB60F9211242F9391
:100460003F934F935F936F937F938F939F93AF933C
:10047000BF93EF93FF93E0910601F0910701099577
:10048000E0910201F09103010995FF91EF91BF9175
:10049000AF919F918F917F916F915F914F913F911C
:1004A0002F910F900FBE0F901F9018951F920F92D3
:1004B0000FB60F9211242F933F934F935F936F9337
:1004C0007F938F939F93AF93BF93EF93FF93E091AD
:1004D0000401F09105010995E0910201F0910301F9
:1004E0000995FF91EF91BF91AF919F918F917F916E
:1004F0006F915F914F913F912F910F900FBE0F9091
:100500001F9018951F920F920FB60F9211242F93E0
:100510003F934F935F936F937F938F939F93AF938B
:10052000BF93EF93FF934091C60060E088EC91E0A9
:100530000E94E00081E08093CB03FF91EF91BF9197
:10054000AF919F918F917F916F915F914F913F916B
:100550002F910F900FBE0F901F9018951F920F9222
:100560000FB60F9211242F933F934F935F936F9386
:100570007F938F939F93AF93BF93EF93FF9361E02C
:1005800088EC91E00E94BA00892B41F040E061E0E4
:1005900088EC91E00E941C018093C600FF91EF91CE
:1005A000BF91AF919F918F917F916F915F914F918B
:1005B0003F912F910F900FBE0F901F901895E0EC78
:1005C000F0E0908195FFFDCF8093C60008950F93D2
:1005D0001F93CF93DF93FC018081882399F06623DA
:1005E00089F08F01EF01219670E06F5F7F4F060F5A
:1005F000171F03C0C017D10729F00E94DF0289919D
:100600008111F8CFDF91CF911F910F910895FC01D7
:1006100001900020E9F731979F01281B390BAC01AD
:1006200061E088EC91E00E945C0181E08093CA0364
:10063000089588EC91E00E94B70008951F920F92F0
:100640000FB60F9211242F933F934F935F936F93A5
:100650007F938F939F93AF93BF93EF93FF9380917B
:100660008B048F5F80938B0410928A04EBE6F0E09A
:1006700080818D7F80838FE791E00E940703FF9147
:10068000EF91BF91AF919F918F917F916F915F910A
:100690004F913F912F910F900FBE0F901F90189583
:1006A0001F920F920FB60F9211242F933F934F93E7
:1006B0005F936F937F938F939F93AF93BF93EF93CA
:1006C000FF936FEF86E891E00E94E702FF91EF91C0
:1006D000BF91AF919F918F917F916F915F914F915A
:1006E0003F912F910F900FBE0F901F90189514BE41
:1006F0000FB6F894A895809160008861809360009F
:10070000109260000FBE83B7817F846083BF17B8EB
:100710001AB81DB88FEF88B98BB98EB980E48AB941
:100720008BB92FEF83ED90E3215080409040E1F7AB
:1007300000C00000FFCF0E947703E5E8F4E080816D
:10074000807E808310928604109287041092880421
:1007500010928904E0E6F4E08081807E808310922C
:1007600061041092620410926304109264048CEC91
:1007700093E00E94BC0308959C01FC01AC01415927
:100780005F4F90A1907E90A311A212A213A214A277
:10079000B596E417F507A9F7F901E159FF4F118262
:1007A0001082329611821082329610820895ECEAFD
:1007B000F4E08081807E80831092AD041092AE04BC
:1007C0001092AF041092B0040895EE0FFF1F059031
:0A07D000F491E02D0994F894FFCF96
:1007DA0083018301830183018301830183018301EF
:1007EA000A53656E74207C205025693A000A20203D
:1007FA0041636B20696E202569206D73000A52657A
:10080A00636569766564207C205025693A000A2070
:10081A00205B4D696E655D000A2020526573706F1A
:10082A006E73653A202569206D73000A20205B4E9D
:10083A006F74206D696E655D000A4E6F7420646581
:10084A006C697665726564207C205025693A000AD5
:10085A003C4952513E000A556E657870656374656D
:10086A006420496E7465727275707421000A4C6F47
:10087A006164696E67204E5246000A4C6F61646972
:10088A006E67204E5246204661696C65640A000A0A
:08089A004C6F6164656400000D
:00000001FF
