:100000000C94DC020C9404030C9404030C942A1149
:100010000C9404030C9404030C9404030C941E0A23
:100020000C944A0A0C94F7090C9404030C940403EE
:100030000C9404030C9404030C949F090C94CB09B6
:100040000C9478090C9404030C94200B0C94040376
:100050000C944C0B0C9404030C9404030C940403B4
:100060000C9404030C9404030C9404030C940403F4
:100070000C9404030C9404030C9404030C940403E4
:100080000C9404030C9404030C9404030C940403D4
:100090000C9404030C9404030C9404030C940403C4
:1000A0000C9404030C9404030C9404030C940403B4
:1000B0000C940403BB07A207A207A207A207A2078A
:1000C000A207A207A207A207A207A207A207A207E8
:1000D000A207A207A207A207A207A207A207A207D8
:1000E000A207A207A207A207A207A207A207A207C8
:1000F000A207A207A207A207A207A207A207A207B8
:10010000A207A207A207A207A2077507A2077A07FC
:10011000A207A207A207A207A207A207A207A20797
:10012000A207A207A207A207A207A207A207A20787
:10013000A207A207A207A207A207A207A207A20777
:10014000A207A207A207A207A207A207A207A20767
:10015000A207A207A207A207A207A207A207A20757
:10016000A207A207A207A207A207A207A207A20747
:10017000A207A207A207A207A2075607720737071E
:100180006407A2077F073A07A207A2078507BB07F4
:10019000A207A2074807BB0734078207A207A207E6
:1001A000A207A20788078D077E0F2A0F360F400F80
:1001B0004B0F560F610F1310C10FCC0FD60FE10F6D
:1001C000EC0FF70F07634236B79BD8A71A3968566A
:1001D00018AEBAAB558C1D3CB7CC5763BD6DEDFD69
:1001E000753EF6177231BF000000803F0800000026
:1001F000BE922449123EABAAAA2ABECDCCCC4C3E1C
:1002000000000080BEABAAAAAA3E00000000BF000A
:100210000000803F0000000000084178D3BB438706
:10022000D1133D190E3CC3BD4282AD2B3E68EC821A
:1002300076BED98FE1A93E4C80EFFFBE01C4FF7F9F
:100240003F0000000000205072657373202768276C
:1002500020746F207365652068656C702E000A43FA
:100260006861722027256327206973206E6F7420D0
:10027000612076616C696420636F6D6D616E642EC0
:10028000000A5350492053706565642053656C65BE
:10029000637465642028557365202B2F2D29000A6F
:1002A0004368616E6E656C205363616C696E672094
:1002B00053656C65637465642028557365202B2F26
:1002C0002D29000A506F776572205363616C696E47
:1002D000672053656C6563746564202855736520D9
:1002E0002B2F2D29000A496E74657276616C20539C
:1002F00063616C696E672053656C65637465642027
:1003000028557365202B2F2D29000A0971207C2088
:100310004D616E75616C2049525120726F75746920
:100320006E652063616C6C000A0979207C20466F41
:1003300072636520746F2072657365742049525131
:10034000206D6F6465000A0A095370656369616C0A
:10035000733A000A096C207C204C6F6164204E5275
:100360004620726567697374657273000A096620B6
:100370007C2053656C65637420535049205370652D
:100380006564000A0963207C2053656C65637420F2
:100390005246204368616E6E656C000A0970207CCD
:1003A0002053656C65637420524620506F776572E8
:1003B000000A0969207C2053656C656374205246ED
:1003C00020496E74657276616C203C312C36303E6B
:1003D000000A0964207C204368616E6765205246EC
:1003E00020446174612072617465000A096D207C8B
:1003F0002053656E64204D657373616765000A095B
:1004000072207C205072696E74206E5246205265B4
:1004100067697374657273000A0973207C205072D7
:10042000696E742053657474696E6773000A096895
:10043000207C205072696E742048656C70000A0A36
:10044000507265737320612073696E676C65206BF1
:10045000657920746F2074726967676572207468AB
:100460006520616374696F6E3A000A53797374652D
:100470006D2074696D653A2025642073202F20302B
:1004800078000A53797374656D2074696D653A203C
:100490002569206D73202F203078000A52462044B1
:1004A00061746120726174653A2025692025636258
:1004B0007073000A5246204368616E6E656C3A2084
:1004C0002569204D487A000A524620506F776572A0
:1004D0003A2025692064426D000A4175746F2D74BD
:1004E00072616E736D697373696F6E3A20256973FB
:1004F000000A5350492073706565643A20256620D0
:100500006B487A000A535049206D6F64653A202584
:1005100073000A0A53657474696E67733A000A4976
:100520006E76616C69642073656C656374696F6E67
:10053000000A5350492073706565643A202566208F
:100540006B487A000A4368616E6E656C206368616F
:100550006E67656420746F202569204D487A000A13
:10056000524620706F776572206368616E676564BC
:1005700020746F2025692064426D000A496E7465FD
:100580007276616C206368616E67656420746F20A9
:10059000256973000A4175746F2D7472616E736DF5
:1005A000697373696F6E2064697361626C65642E30
:1005B000000022106613651B11241FBECFEFD8E088
:1005C000DEBFCDBF12E0A0E0B1E0EAE0FFE302C091
:1005D00005900D92AA3CB107D9F725E0AAECB2E04C
:1005E00001C01D92AE3EB207E1F712E0CCEDD2E0C1
:1005F00004C02197FE010E94671FC93DD107C9F7BA
:100600000E9460120C94831F0C945C110F931F9333
:1006100028EE33E0629F8001639F100D1124012EAC
:10062000000C220B330B0093950510939605209335
:100630009705309398058093ED054093CB021F9169
:100640000F910895CF930E943F1886E00E94AC1846
:10065000982F987085FF07C061E0911101C060E09C
:10066000C1E090E009C0992321F0CAEF60E091E079
:1006700003C0C2E061E090E09295990F907E660F12
:10068000660F660F692B877D682B86E00E945D18D8
:100690000E943D18CA3018F08BE690E002C08DE44D
:1006A00090E09F938F931F92CF938EE191E09F9361
:1006B0008F930E948D0F0F900F900F900F900F90BF
:1006C0000F90CF910895222319F0841304C007C01E
:1006D000861303C006C08F5F089581500895842F4C
:1006E0000895862F0895CF92DF92EF92FF920F9395
:1006F0001F93CF93DF93CDB7DEB76E970FB6F89405
:10070000DEBF0FBECDBF162F823009F47FC018F4B4
:10071000813041F01AC1833009F4AAC0843009F451
:10072000D0C013C1C0909505D0909605E090970574
:10073000F0909805609195057091960580919705C8
:100740009091980528EE33E040E050E00E94451F6C
:10075000822F212F4CE360E00E946303282F30E0BA
:10076000A8EEB3E00E946D1F609395057093960507
:1007700080939705909398058091950590919605A3
:10078000A0919705B0919805892B8A2B8B2B89F422
:100790000E94F90A64E975E08E010F5F1F4FC801DE
:1007A0000E947C1F1F930F930E948D0F0F900F903C
:1007B000D6C0CD28CE28CF2811F40E94F10AC090CF
:1007C0009505D0909605E0909705F09098056BE719
:1007D00075E08E010F5F1F4FC8010E947C1FC7018B
:1007E000B60128EE33E040E050E00E94451F5F93E1
:1007F0004F933F932F931F930F930E948D0F0F9052
:100800000F900F900F900F900F90A9C00E943F186B
:1008100086E00E94AC18F82E8670212F43E060E03D
:1008200086950E946303082F10E06F2D697F680191
:10083000CC0CDD1C6C2986E00E945D180E943D18DE
:100840006FE575E0CE0101967C010E947C1F0C0DC6
:100850001D1D000F111F025111091F930F93FF92CD
:10086000EF920E948D0F0F900F900F900F9077C016
:100870000E943F1885E00E94AC18212F4DE760E0F0
:100880000E946303182F682F85E00E945D18109363
:10089000ED050E943D1864E475E0CE0101967C01EF
:1008A0000E947C1F812F90E0805A964F9F938F93D8
:1008B000FF92EF920E948D0F0F900F900F900F906C
:1008C0004EC00E946F0921E0111120E043E060E07A
:1008D0008091CB020E9463038093CB02682F70E06B
:1008E0006F5F7F4F072E000C880B990B0E948F1CA7
:1008F0009B01AC0160E070E080E890E40E94AC1DD8
:100900006B017C0161E375E08E010F5F1F4FC80131
:100910000E947C1FA701960160E070E08AE796E4E0
:100920000E94E51B9F938F937F936F931F930F9369
:100930000E948D0F8091CB020E946B090F900F9047
:100940000F900F900F900F900AC06EE175E0CE01EE
:1009500001960E947C1FCE0101960E94D40B6E96D8
:100960000FB6F894DEBF0FBECDBFDF91CF911F91C0
:100970000F91FF90EF90DF90CF90089561E00E947B
:100980007303089560E00E94730308958F929F920D
:10099000AF92BF92CF92DF92EF92FF920F931F938D
:1009A000CF93DF93CDB7DEB7A2970FB6F894DEBF33
:1009B0000FBECDBF62E175E09E012F5F3F4F790111
:1009C000C9010E947C1FC7010E94D40B64E075E03E
:1009D000C7010E947C1F8CE391E09F938F93FF924D
:1009E000EF920E948D0F6091CB0270E06F5F7F4F9E
:1009F000072E000C880B990B0E948F1C9B01AC01E9
:100A000060E070E080E890E40E94AC1D4B015C0166
:100A100061EF74E0C7010E947C1FA501940160E0B2
:100A200070E08AE796E40E94E51B9F938F937F9383
:100A30006F93FF92EF920E948D0F8090950590909A
:100A40009605A0909705B090980569ED74E0C701F0
:100A50000E947C1FC501B40128EE33E040E050E065
:100A60000E94451F5F934F933F932F93FF92EF9206
:100A70000E948D0F86E00E94AC18182F67EC74E07E
:100A8000C7010E947C1F1670812F90E09C01369553
:100A90002795820F931F880F991F42979F938F93DB
:100AA000FF92EF920E948D0F0091ED0510E0005A29
:100AB000164F63EB74E0C7010E947C1F1F930F93D6
:100AC000FF92EF920E948D0F86E00E94AC180FB645
:100AD000F894DEBF0FBECDBF83FD68C085FF6AC03E
:100AE0000F2EFAEFDF2EF02D0F2EFBE6EF2EF02D5E
:100AF000F12C6BE974E08E010F5F1F4FC8010E945B
:100B00007C1FFF92EF921F92DF921F930F930E9420
:100B10008D0F0E94F5076B017C016F8F78A389A36D
:100B20009AA30F900F900F900F900F900F90611558
:100B30007D4781059105A0F462E874E0C8010E9438
:100B40007C1FFF92EF92DF92CF921F930F930E9430
:100B50008D0F0F900F900F900F900F900F9020C05F
:100B60006AE674E08E010F5F1F4FC8010E947C1F70
:100B7000C701B6010E948D1C20E030E04AE754E432
:100B80000E94E51B9F938F937F936F931F930F9307
:100B90000E948D0F0F900F900F900F900F900F905D
:100BA00064E0CE014F960E94430D0CC06894DD2492
:100BB000D1F802C0DD24D3940F2EFDE4EF2EF02DEA
:100BC000F12C97CFA2960FB6F894DEBF0FBECDBF23
:100BD000DF91CF911F910F91FF90EF90DF90CF9019
:100BE000BF90AF909F908F900895CF93DF93CDB734
:100BF000DEB7E2970FB6F894DEBF0FBECDBF6EE34F
:100C000074E0CE0101960E947C1F6FEFCE01019629
:100C10000E948E0B6DE274E0CE0101960E947C1F53
:100C20006FEFCE0101960E948E0B68E174E0CE0159
:100C300001960E947C1F6FEFCE0101960E948E0BE1
:100C40006EEF73E0CE0101960E947C1F6FEFCE0124
:100C500001960E948E0B6BEE73E0CE0101960E940E
:100C60007C1F6FEFCE0101960E948E0B61ED73E049
:100C7000CE0101960E947C1F6FEFCE0101960E946B
:100C80008E0B61EB73E0CE0101960E947C1F6FEF2B
:100C9000CE0101960E948E0B6BE973E0CE010196A6
:100CA0000E947C1F6FEFCE0101960E948E0B63E8BD
:100CB00073E0CE0101960E947C1F6FEFCE0101967A
:100CC0000E948E0B6CE673E0CE0101960E947C1FA1
:100CD0006FEFCE0101960E948E0B63E573E0CE01AB
:100CE00001960E947C1F6FEFCE0101960E948E0B31
:100CF00066E473E0CE0101960E947C1F6FEFCE0187
:100D000001960E948E0B68E273E0CE0101960E946C
:100D10007C1F6FEFCE0101960E948E0B6AE073E09C
:100D2000CE0101960E947C1F6FEFCE0101960E94BA
:100D30008E0BE2960FB6F894DEBF0FBECDBFDF91EB
:100D4000CF910895AF92BF92CF92DF92EF92FF9230
:100D50000F931F93CF93DF9300D01F92CDB7DEB7D1
:100D60006FEF85E491E00E948E0B10E001E00F2E02
:100D7000FEE4EF2EF1E0FF2EF02D0F2EF3E0BF2E5C
:100D8000F02DAA24A3940DC01B3051F018F4183094
:100D900029F406C0143221F1163211F00A2D01C0D7
:100DA0000B2DC12ED12C1F921F93FF92EF920E9408
:100DB000F60E402FBE016F5F7F4FC6010E942808CC
:100DC000602FCE0101960E940E0D8AE00E94860BD4
:100DD000100F0F900F900F900F901632A8F21DC0B9
:100DE0001F9284E28F938EE491E09F938F930E94F1
:100DF000F60E42E0BE016F5F7F4F84E290E00E94FA
:100E0000280862E0CE0101960E940E0D8AE00E9441
:100E1000860B0F900F900F900F900F900F900F90E8
:100E2000DF91CF911F910F91FF90EF90DF90CF90C6
:100E3000BF90AF900895EF92FF920F931F93CF93BF
:100E4000DF93CDB7DEB7A8970FB6F894DEBF0FBE1D
:100E5000CDBF182F90E08A37910508F073C0FC01D0
:100E6000E65AFF4F0C94671F0E940E1B84C00E941D
:100E7000A20681C081E08093CA0265EE72E0CE01D5
:100E800001960E947C1FCE0101960E94D40B73C074
:100E900082E08093CA0263EC72E0CE0101960E9468
:100EA0007C1FCE0101960E94D40B65C083E0809325
:100EB000CA026FE972E0CE0101960E947C1FCE014A
:100EC00001960E94D40B57C084E08093CA0261E867
:100ED00072E0CE0101960E947C1FCE0101960E9415
:100EE000D40B49C00E94220346C08091CA020E94CE
:100EF000BE0441C08091CA020E94C2043CC00E944C
:100F0000F50539C00E94C60436C00E941D1533C0C5
:100F10000E9485130E94D5192EC00BE610E0F8013F
:100F200080818D7F808381EE0E94AC1882EE0E94CA
:100F3000AC1860E787E00E945D18F801808182604C
:100F4000808319C06EE572E0CE0101967C010E949B
:100F50007C1F1F921F93FF92EF920E948D0F66E4F9
:100F600072E0C7010E947C1FC7010E94D40B0F9042
:100F70000F900F900F90A8960FB6F894DEBF0FBE9B
:100F8000CDBFDF91CF911F910F91FF90EF9008950A
:100F90008091CC029091CD02A091CE02B091CF026F
:100FA0000196A11DB11D8093CC029093CD02A09318
:100FB000CE02B093CF0285E086BD08951092CC0298
:100FC0001092CD021092CE021092CF0240E050E07B
:100FD00060E070E083E00E94760A68EC77E080E0F1
:100FE0000E94A20A0E949C0A08956091CC0270910E
:100FF000CD028091CE029091CF020895EF92FF92A0
:101000000F931F93261737074807590748F07901B0
:101010008A01E61AF70A080B190BC801B7010CC0C0
:10102000DC01CB01821B930BA40BB50BBC01CD01E2
:1010300061507109810991091F910F91FF90EF9003
:101040000895F999FECF92BD81BDF89A80B50895B3
:10105000CF92DF92EF92FF920F931F93CF93DF9384
:101060007B014423A1F04150042F10E00F5F1F4F7C
:10107000060F171FEB016C01C61AD70AC6018C0FA9
:101080009D1F0E9421088993C017D107B9F7C70196
:10109000DF91CF911F910F91FF90EF90DF90CF9054
:1010A00008950F931F93CF938C01C62F0E942108A0
:1010B0008C1749F0F999FECF12BD01BDC0BDF8945F
:1010C000FA9AF99A7894CF911F910F910895DC01C3
:1010D00020E030E0FD01E20FF31F1686E85FFE4FCF
:1010E00010822F5F3F4F2A3F3105A1F7CD010E96A9
:1010F00011969C938E9386509F4F13969C938E933C
:10110000129715961C921E92149717961C921E9277
:10111000169719961C921E9218971B961C921E9257
:101120001A971C961C921C971D961C9208950E945B
:1011300067080895FC01E60FF11D24852130E9F0D0
:1011400070E0660F771FFC01E60FF71F20853185E1
:1011500084819581281739073CF080859185248109
:101160003581821B930B089580859185248135817B
:1011700086509F4F821B930B08958AEF90E008954D
:10118000CF93DF939C0170E0FB01EE0FFF1FE80F90
:10119000F91FC081D181DC01A60FB71F1C969C915D
:1011A000911124C080859185DC011196B187A087BB
:1011B000DE01A80FB91F4C93808591858A3F910568
:1011C00019F08085918502C080E090E0918780874A
:1011D00040855185848195814817590749F4F90163
:1011E000E60FF71F81E0848780E003C08FEF01C026
:1011F00080E0DF91CF910895BF92CF92DF92EF927E
:10120000FF920F931F93CF93DF938C01B42EE62EA2
:10121000F12CE701CC0FDD1FC80FD91FC880D98082
:101220000E949A0818161906E4F4EC81FD81EC0D71
:10123000FD1D8081B11016C0F801EE0DFF1D148652
:101240002C813D812F5F3F4F3D832C832A3F310509
:1012500019F02C813D8102C020E030E03D832C83D9
:1012600001C080E0DF91CF911F910F91FF90EF902F
:10127000DF90CF90BF900895DF92EF92FF920F938F
:101280001F93CF93DF937C01D62ED22F222391F090
:10129000042F152FC0E002C081110BC0F80141914D
:1012A0008F016D2DC7010E94C008CF5FDC13F4CF02
:1012B00001C0DC2F8D2FDF91CF911F910F91FF90F7
:1012C000EF90DF90089584B18C6284B924982D98B2
:1012D00080E58CBD0895837080658CBD08951CBC2D
:1012E00008958EBD0DB407FEFDCF8EB50895089507
:1012F0001F920F920FB60F9211242F933F934F938B
:101300005F936F937F938F939F93AF93BF93EF936D
:10131000FF93E0910801F09109010995FF91EF9188
:10132000BF91AF919F918F917F916F915F914F91FD
:101330003F912F910F900FBE0F901F9018951F9205
:101340000F920FB60F9211242F933F934F935F93F9
:101350006F937F938F939F93AF93BF93EF93FF937D
:10136000E0910E01F0910F010995E0910A01F091D1
:101370000B010995FF91EF91BF91AF919F918F91D3
:101380007F916F915F914F913F912F910F900FBE81
:101390000F901F9018951F920F920FB60F92112465
:1013A0002F933F934F935F936F937F938F939F936D
:1013B000AF93BF93EF93FF93E0910C01F0910D0178
:1013C0000995E0910A01F0910B010995FF91EF91C8
:1013D000BF91AF919F918F917F916F915F914F914D
:1013E0003F912F910F900FBE0F901F9018951F9255
:1013F0000F920FB60F9211242F933F934F935F9349
:101400006F937F938F939F93AF93BF93EF93FF93CC
:10141000E0910001F09101010995FF91EF91BF91D9
:10142000AF919F918F917F916F915F914F913F917C
:101430002F910F900FBE0F901F9018951F920F9233
:101440000FB60F9211242F933F934F935F936F9397
:101450007F938F939F93AF93BF93EF93FF93E0910D
:101460000601F09107010995E0910201F091030155
:101470000995FF91EF91BF91AF919F918F917F91CE
:101480006F915F914F913F912F910F900FBE0F90F1
:101490001F9018951F920F920FB60F9211242F9341
:1014A0003F934F935F936F937F938F939F93AF93EC
:1014B000BF93EF93FF93E0910401F091050109952B
:1014C000E0910201F09103010995FF91EF91BF9125
:1014D000AF919F918F917F916F915F914F913F91CC
:1014E0002F910F900FBE0F901F9018958093D102EF
:1014F00061157105A9F084B5826084BD16BC67BD15
:1015000048BDEEE6F0E08081887F80838081826044
:101510008083452B19F080818460808378940895BE
:1015200016BC17BC48BDEEE6F0E08081887F808362
:10153000808181608083F2CF95B58091D102892B23
:1015400085BD08956115710511F467E779E0813073
:1015500059F028F0823069F0833081F0089570935B
:10156000090160930801089570930B0160930A01CB
:10157000089570930F0160930E01089570930D010B
:1015800060930C0108958093D00261157105D1F02C
:10159000E0EBF0E08081826080831092B200609383
:1015A000B3004093B400E0E7F0E08081887F80835F
:1015B000808182608083452B19F0808184608083E4
:1015C000789408951092B2001092B3004093B40042
:1015D000E0E7F0E08081887F808380818160808384
:1015E000EFCFE1EBF0E090818091D002892B8083F6
:1015F0000895E1EBF0E08081887F80830895611594
:10160000710511F467E779E0813059F028F08230F4
:1016100069F0833081F008957093010160930001B7
:101620000895709303016093020108957093070178
:101630006093060108957093050160930401089575
:101640001F920F920FB60F9211242F933F934F9337
:101650005F936F937F938F939F93AF93BF93EF931A
:10166000FF934091C60060E082ED92E00E94C008C6
:1016700081E08093D504FF91EF91BF91AF919F914D
:101680008F917F916F915F914F913F912F910F902B
:101690000FBE0F901F9018951F920F920FB60F92CA
:1016A00011242F933F934F935F936F937F938F9367
:1016B0009F93AF93BF93EF93FF9361E082ED92E02E
:1016C0000E949A08892B41F040E061E082ED92E0AF
:1016D0000E94FC088093C600FF91EF91BF91AF91EB
:1016E0009F918F917F916F915F914F913F912F913A
:1016F0000F900FBE0F901F90189580E18093C4004B
:101700001092C50088ED8093C1000895E0ECF0E0F0
:10171000908195FFFDCF8093C60008950F931F938E
:10172000CF93DF93FC018081882399F0662389F0B1
:101730008F01EF01219670E06F5F7F4F060F171F3B
:1017400003C0C017D10729F00E94860B899181112F
:10175000F8CFDF91CF911F910F910895CF93E09132
:101760001C01F0911D01982F9F70DF01A90FB11D81
:10177000CC9190E0929582958F7089279F708927F0
:10178000E80FF91F80810E94860B8C2F0E94860B28
:10179000CF910895482F61E082ED92E00E94C00849
:1017A00081E08093D4040895FC0101900020E9F7C2
:1017B00031979F01281B390BAC0161E082ED92E06B
:1017C0000E943C0981E08093D4040895CF93E09176
:1017D0001C01F0911D01982F9F70DF01A90FB11D11
:1017E000CC9190E0929582958F7089279F70892780
:1017F000E80FF91F80810E94CA0B8C2F0E94CA0B30
:10180000CF9108958091D404882389F01092D40454
:1018100061E082ED92E00E949A08892B41F040E05D
:1018200061E082ED92E00E94FC088093C60008957A
:1018300061E082ED92E00E949A08892B19F00E94E3
:10184000020CF6CF089540E060E082ED92E00E9445
:10185000FC08089560E082ED92E00E949A080895E5
:10186000CF93DF93FC01362FA6E1B1E080E38C93A8
:1018700011968C93119712968C93129713968C93C2
:10188000139714968C931497309721F410921701A4
:10189000CD014DC084E0821B282FC62FD0E0CF01A0
:1018A000BE010E94311F8A3038F4A22FB0E0AA5E38
:1018B000BE4F805D8C9306C0A22FB0E0AA5EBE4FE3
:1018C000895C8C93303139F4F295E295EF70EF2713
:1018D000FF70EF2705C0CF01BE010E94311FFB0141
:1018E0003097B1F4442379F080911A018033C1F02C
:1018F00086E191E01CC08291803361F41082E2178E
:10190000F307C9F70AC0822F90E08A5E9E4F0FC08E
:101910002150C5CF86E191E00AC086E191E007C081
:1019200010921A01EAE1F1E027E131E0E4CFDF9122
:10193000CF910895CF93DF93EC01992334F48DE296
:101940000E94860BD195C195D10920E040E06AE064
:10195000CE010E94300C6FEF0E948E0BDF91CF9171
:1019600008958F929F92AF92BF92CF92DF92EF92A3
:10197000FF92CF934B015C01C42F453008F0C4E0C7
:1019800020E030E0A901C501B4010E94E01B8823DA
:101990003CF4B7FAB094B7F8B0948DE20E94860B8D
:1019A000C501B4010E94571C6B017C01CB010E9450
:1019B0009A0C8CE20E94860BB601DD0C880B990B09
:1019C0000E948F1C9B01AC01C501B4010E94731BD6
:1019D0002CEA35EC47E257E30E94741B20E030E428
:1019E0004CE156E40E943F1D0E945E1CDC01CB01CD
:1019F00021E041E06AE00E94300CFC01EC0FF11D97
:101A000010826FEF0E948E0BCF91FF90EF90DF90CE
:101A1000CF90BF90AF909F908F9008950F931F939A
:101A2000CF93DF936623A1F08C01EC01060F111D0B
:101A300080E20E94860B899120E040E060E190E026
:101A40000E94300C6FEF0E948E0BC017D10781F7F8
:101A5000DF91CF911F910F910895CF93DF93EC0108
:101A6000992334F48DE20E94CA0BD195C195D10916
:101A700020E040E06AE0CE010E94300C0E94D40BCE
:101A8000DF91CF9108950F931F93CF93DF93662338
:101A900099F08C01EC01060F111D80E20E94CA0B27
:101AA000899120E040E060E190E00E94300C0E94CB
:101AB000D40BC017D10789F7DF91CF911F910F91F8
:101AC0000895CF92DF92EF92FF92CF936B017C014A
:101AD0000E945E1CDC01CB0120E040E06AE00E9435
:101AE000300CFC01208121115EC006C08191811162
:101AF00010C0C43011F40AC0C0E0EC2FF0E0E05F89
:101B0000FE4F8CE28083C43048F055C0109214011F
:101B100052C08D93CF5FC53049F74DC0C701B601A4
:101B20000E94571C072E000C880B990B0E948F1CDB
:101B30009B01AC01C701B6010E94731B20E030E499
:101B40004CE156E40E943F1D0E945E1CDC01CB016B
:101B500021E041E06AE00E94300CDC01CF5F6C2F95
:101B600070E0653071053CF54C91442351F09B01C8
:101B700090E00DC0FD01E90FF11D4081411107C04A
:101B800001C09B01F901E05FFE4F108214C0F90112
:101B9000E05FFE4F40839F5F9B01290F311D253081
:101BA000310544F308C020931001FC013196A1E1F6
:101BB000B1E0C1E09BCF80E191E0CF91FF90EF9049
:101BC000DF90CF900895CF92DF92EF92FF926B015A
:101BD0007C0120E030E0A9010E94E01B88233CF456
:101BE0008DE20E94CA0BF7FAF094F7F8F094C7015F
:101BF000B6010E94610D0E94D40BFF90EF90DF9020
:101C0000CF900895DC012C912223E1F040E050E0D8
:101C100080E090E008C0492F50E0FD01E40FF51F7F
:101C20002081222381F0253249F4FD01E40FF51FC4
:101C30002181253211F08F5F01C09F5F9F5F943635
:101C400050F3089580E00895EF92FF920F931F9351
:101C5000CF93DF93FB01C081D181C031F7E2DF0771
:101C600008F04DC07B018C01FC01EC0FFD1F808151
:101C7000811108C046C0F801EC0FFD1F8081882348
:101C800009F441C0853289F5CE010296F7019183AE
:101C900080832196F801EC0FFD1F80818436B9F016
:101CA00038F48532D1F0833671F081111CC019C02F
:101CB000893659F018F4863661F015C0833729F15A
:101CC000883749F010C082E021C083E01FC084E063
:101CD0001DC085E01BC086E019C085E20E94860B0E
:101CE00006C080E013C080E011C00E94860B2196E0
:101CF000C031F7E2DF0708F4BECF80E007C080E024
:101D000005C080E003C080E001C081E0DF91CF9199
:101D10001F910F91FF90EF900895EF92FF920F9314
:101D20001F93CF93DF93FB01C081D181C031F7E2D4
:101D3000DF0708F04DC07B018C01FC01EC0FFD1F9B
:101D40008081811108C046C0F801EC0FFD1F808121
:101D5000882309F441C0853289F5CE010296F70146
:101D6000918380832196F801EC0FFD1F80818436DA
:101D7000B9F038F48532D1F0833671F081111CC08E
:101D800019C0893659F018F4863661F015C08337CA
:101D900029F1883749F010C082E021C083E01FC0DC
:101DA00084E01DC085E01BC086E019C085E20E946A
:101DB000CA0B06C080E013C080E011C00E94CA0BAD
:101DC0002196C031F7E2DF0708F4BECF80E007C0FC
:101DD00080E005C080E003C080E001C081E0DF91C9
:101DE000CF911F910F91FF90EF9008958F929F9246
:101DF000AF92BF92CF92DF92EF92FF920F931F9319
:101E0000CF93DF9300D0CDB7DEB78E010F5E1F4FAB
:101E1000F801A190B1908F01C5010E94020E1A82B3
:101E20001982C82ED12C1C141D040CF061C0E12CA9
:101E3000F12CBE016F5F7F4FC5010E94240E982ECA
:101E400090E08730910508F043C0FC01EC52FF4F51
:101E50000C94671F4801F2E08F0E911C6FEFF801A0
:101E6000808191810E948E0B84013BC04801F2E089
:101E70008F0E911CF80180810E94860B840131C075
:101E80004801F2E08F0E911CF801808191810E943F
:101E90009A0C840126C0F80160817181828193814E
:101EA0000C5F1F4F43E00E94B10C1BC0F801608122
:101EB0007181828193810C5F1F4F41E00E94B10CC0
:101EC00010C0F80180810E5F1F4F0E94AE0B09C049
:101ED0006FEF83E591E00E948E0B892D90E00E94C8
:101EE0009A0CFFEFEF1AFF0AEC14FD0409F0A1CFE2
:101EF000BE016F5F7F4FC5010E94240E0F900F90AF
:101F0000DF91CF911F910F91FF90EF90DF90CF90D5
:101F1000BF90AF909F908F9008958F929F92AF92B5
:101F2000BF92CF92DF92EF92FF920F931F93CF93C6
:101F3000DF9300D0CDB7DEB78E010F5E1F4FF801E3
:101F4000A190B1908F01C5010E94020E1A821982E0
:101F5000C82ED12C1C141D040CF05FC0E12CF12CF8
:101F6000BE016F5F7F4FC5010E948D0E982E90E0DD
:101F70008730910508F042C0FC01E552FF4F0C94F8
:101F8000671F4801F2E08F0E911CF801808191815A
:101F90000E94D40B84013AC04801F2E08F0E911CDC
:101FA000F80180810E94CA0B840130C04801F2E030
:101FB0008F0E911CF801808191810E942D0D84016A
:101FC00025C0F80160817181828193810C5F1F4F70
:101FD00043E00E94E30D1AC0F801608171818281A3
:101FE00093810C5F1F4F41E00E94E30D0FC0F80189
:101FF00080810E5F1F4F0E94E60B08C083E591E0D1
:102000000E94D40B892D90E00E942D0DFFEFEF1A56
:10201000FF0AEC14FD0409F0A3CFBE016F5F7F4FF0
:10202000C5010E948D0E0F900F90DF91CF911F91EF
:102030000F91FF90EF90DF90CF90BF90AF909F9067
:102040008F90089582ED92E00E9497080895409144
:10205000990550919A0560919B0570919C0580911E
:10206000950590919605A0919705B0919805481710
:1020700059076A077B0760F01092990510929A053C
:1020800010929B0510929C0581E08093D6040895E0
:102090008091990590919A05A0919B05B0919C051E
:1020A0000196A11DB11D8093990590939A05A09367
:1020B0009B05B0939C050895EF92FF920F931F9399
:1020C000CF93DF93EC010E94F5079B01AC0169A15E
:1020D0007AA18BA19CA10E94FE07162F072FF82E34
:1020E000E92E88A18295869587701F928F938AE743
:1020F00091E09F938F930E948D0F68A16F71CE0125
:102100000E94430DEF92FF920F931F9387E891E097
:102110009F938F930E948D0F0E94D5198DB79EB704
:102120000A960FB6F8949EBF0FBE8DBFDF91CF9178
:102130001F910F91FF90EF900895EF92FF920F93F0
:102140001F93CF93DF93EC0188A1829586958770CA
:102150001F928F9387E991E09F938F930E948D0F39
:1021600068A16F71CE010E94430D0E94F5079B018B
:10217000AC016091910570919205809193059091C9
:1021800094050E94FE07162F072FF82EE92E98A11E
:102190008091900589278F710F900F900F900F906D
:1021A000F1F4492F4F71BE0180E795E00E94F216CD
:1021B0008823A9F088EA91E00E94D40BEF92FF9265
:1021C0000F931F9382EB91E09F938F930E948D0F4B
:1021D0000F900F900F900F900F900F900FC085EC05
:1021E00091E00E94D40B0E94F50769A37AA38BA308
:1021F0009CA3BE0187ED94E00E945917DF91CF9117
:102200001F910F91FF90EF900895CF93DF93EC0112
:1022100088A18295869587701F928F9383ED91E0B8
:102220009F938F930E948D0F68A16F71CE010E94C2
:10223000430DE0E9F5E08081807E808381EE0E949D
:10224000AC180E94D5190F900F900F900F90DF914E
:10225000CF9108951F920F920FB60F9211242F93D2
:102260003F934F935F936F937F938F939F93AF931E
:10227000BF93EF93FF9380919E058F5F80939E05A0
:1022800010929D05EBE6F0E080818D7F808389EEE2
:1022900091E00E94D40BFF91EF91BF91AF919F917C
:1022A0008F917F916F915F914F913F912F910F90FF
:1022B0000FBE0F901F9018951F920F920FB60F929E
:1022C00011242F933F934F935F936F937F938F933B
:1022D0009F93AF93BF93EF93FF936FEF80EF91E0E6
:1022E0000E948E0BFF91EF91BF91AF919F918F91C3
:1022F0007F916F915F914F913F912F910F900FBE02
:102300000F901F90189514BE0FB6F894A895809161
:102310006000886180936000109260000FBE83B7F8
:10232000817F846083BF17B81AB81DB88FEF88B952
:102330008BB98EB980E48AB98BB90E94DE070E94FE
:102340007D0B40E06FE080E00E9406030E94B91917
:1023500080E090E00E94BC1940E050E06AEF70E03D
:1023600084E00E94C30A67E270E181E00E94FF0AF4
:1023700078946FEF87E092E00E948E0B08956FEFE4
:1023800080E192E00E948E0B0E94C519811111C05C
:102390000E940E1B6FEF8DE192E00E948E0B2FEFDB
:1023A0008BE792E9215080409040E1F700C00000A7
:1023B000EBCF6FEF82E392E00E948E0B45E051E19C
:1023C0006CE570E18DE990E10E94C8190E94D51971
:1023D000EBE6F0E08081826080830895CF92DF9207
:1023E000EF92FF92CF93DF93CDB7DEB7A9970FB6E9
:1023F000F894DEBF0FBECDBF0E94F50769837A83D4
:102400008B839C8384E08093900544E0BE016F5FE2
:102410007F4F80E795E00E94DC16C980DA80EB8070
:10242000FC80C0929105D0929205E0929305F092C3
:10243000940585E2E0E7F5E0DE01159601900D9246
:102440008A95E1F78DA1482F4F7180936B05C0925B
:102450006C05D0926D05E0926E05F0926F05BE019D
:102460006B5F7F4F8BE495E00E94DC1680E795E080
:102470000E940F1A0E94F5076B017C0180919E0556
:1024800081110DC00E94F5079B01AC01C701B60187
:102490000E94FE07623071058105910578F30E9464
:1024A000D5191092D604A9960FB6F894DEBF0FBEC8
:1024B000CDBFDF91CF91FF90EF90DF90CF90089547
:1024C000CF93DF93CDB7DEB7CA54D1090FB6F894D6
:1024D000DEBF0FBECDBF0E9483110E94BF110E94BC
:1024E000F10A0E94C6040E94180C0E94F5050E9481
:1024F000180C0E94F5072B013C0110E0F12C0F2E67
:10250000FBE6CF2ED12CF02DEE24E3940F2EFBE62C
:102510008F2EF5E09F2EF02D0F2EFBE4AF2EF5E071
:10252000BF2EF02D0E942A0C882309F4C4C00E94FB
:10253000230C082F0E941B07093719F080919D0575
:1025400001C08F2D80939D0580919E05811104C04F
:10255000013769F401C00F2DF0929E050E94611AA7
:10256000867009F01F2DF601808182608083809142
:10257000D604811102C00D3621F40E94EE111E2DE9
:1025800044C011119EC087ED94E00E942F171816C9
:102590001906DCF58AE392E00E94D40B67ED74E043
:1025A000CE0186960E94D1170E94F5072B966CAF3C
:1025B0007DAF8EAF9FAF2B9725E2FE01B696DE0171
:1025C000119601900D922A95E1F729A1422F4F71A2
:1025D000F4012083F50161A372A383A394A3BE0138
:1025E0006F5F7F4FC5010E94DC16CE0186960E9468
:1025F0000F1A87ED94E00E94FD170E94D519809173
:102600009D05882349F01E2D32C080919D058111C2
:102610002CC0112329F101C01E2D0E94F5079B013A
:10262000AC01C301B2010E94FE076333710581054D
:102630009105F0F186E492E00E94D40B84E592E0EB
:102640000E94D40BE0929E05E0929D050E94F50742
:102650002B013C01F6018081826080831F2D28C000
:102660000E94F5072B013C0123C0112369F00E9451
:10267000F5079B01AC01C301B2010E94FE07633361
:1026800071058105910568F40E94F5079B01AC0175
:10269000C301B2010E94FE076536710581059105EF
:1026A00038F0E0929E050E94F5072B013C011F2D9A
:1026B0000E94020C37CF80919E0581114CCF0F2DC7
:1026C00056CF80919D058111D0CFA7CFE0E9F5E0ED
:1026D0008081807E808310929105109292051092E5
:1026E000930510929405EBE6F5E08081807E80836F
:1026F00010926C0510926D0510926E0510926F0588
:1027000087ED94E00E9414170895CF92DF92EF9224
:10271000FF920F931F93CF93DF93CDB7DEB7CE57C2
:10272000D1090FB6F894DEBF0FBECDBF8E010F5F8B
:102730001F4F8EE7F80111928A95E9F76FEF82E754
:1027400092E00E948E0B6801780100E0602F85E026
:102750000E945D186FE080E00E945D180E943D18A5
:1027600087EA92E00197F1F700C0000014E189E0E8
:102770000E94AC18882321F0F70180818F5F80834D
:10278000FAE6FA95F1F700C0115089F70E943F1858
:102790006EE080E00E945D180F5F8FEFE81AF80A84
:1027A0000E37A1F67E019FE7E90EF11C05E812E065
:1027B000F60181916F011F928F931F930F930E94D7
:1027C000F60E0F900F900F900F90EC14FD0481F710
:1027D000C258DF4F0FB6F894DEBF0FBECDBFDF91FA
:1027E000CF911F910F91FF90EF90DF90CF900895C0
:1027F000CF93DF9363E081E090E00E94510863E0B3
:1028000082E090E00E94510861E083E090E00E9445
:10281000510863E084E090E00E9451086EE087E098
:1028200090E00E94510861E188E090E00E94510828
:1028300062E289E090E00E94510863E38AE090E060
:102840000E94510864E48BE090E00E94510865E525
:102850008CE090E00E94510866E68DE090E00E94D6
:102860005108CBE1D0E064E0CE010E9451082196EE
:10287000C132D105C1F764E081E290E00E945108C5
:1028800063E082E290E00E9451086FE083E290E012
:102890000E945108DF91CF9108955F926F927F92CD
:1028A0008F929F92AF92BF92CF92DF92EF92FF9260
:1028B0000F931F93CF93DF9300D000D000D0CDB7FC
:1028C000DEB76FE080E00E945D1863E081E00E9467
:1028D0005D1863E082E00E945D1861E083E00E9481
:1028E0005D1863E084E00E945D186091ED0585E06D
:1028F0000E945D186EE086E00E945D1860E787E048
:102900000E945D186894EE24E3F8F12C0F2EFAE093
:102910005F2EF02D00E010E00F2EF3E08F2E912CB3
:10292000F02D3E0184E0680E711CC401002E02C02F
:10293000959587950A94E2F780FF2CC00230D8F471
:10294000FE0131965F016701C6010E942108F50171
:1029500081935F01FFEFCF1ADF0AA614B704A1F736
:1029600025E043E0BE016F5F7F4F852D0E94211956
:10297000811110C047C0C8010C960E9421088983AC
:1029800025E041E0BE016F5F7F4F852D0E94211938
:102990008823D1F10F5F1F4F539483E0E80EF11CA1
:1029A0000630110511F688E090E00E942108898325
:1029B00089E090E00E9421088A838AE090E00E94EA
:1029C00021088B8325E043E0BE016F5F7F4F80E1EC
:1029D0000E9421198823D1F011E164E0812F0E9427
:1029E0005D181F5F1731C9F764E08DE10E945D1823
:1029F00063E08CE10E945D186FE080E00E945D184A
:102A000081E005C080E003C080E001C080E0269640
:102A10000FB6F894DEBF0FBECDBFDF91CF911F91EF
:102A20000F91FF90EF90DF90CF90BF90AF909F906D
:102A30008F907F906F905F9008955F926F927F92DA
:102A40008F929F92AF92BF92CF92DF92EF92FF92BE
:102A50000F931F93CF93DF9300D000D000D0CDB75A
:102A6000DEB78FE0898325E041E0BE016F5F7F4FD5
:102A700080E00E942119882309F416C181E090E0CA
:102A80000E942108898325E041E0BE016F5F7F4FEE
:102A900081E00E942119882309F408C182E090E0B6
:102AA0000E942108082F898325E041E0BE016F5F65
:102AB0007F4F82E00E942119882309F4F9C083E046
:102AC00090E00E942108898325E041E0BE016F5F0C
:102AD0007F4F83E00E942119882309F4EBC084E032
:102AE00090E00E942108898325E041E0BE016F5FEC
:102AF0007F4F84E00E942119882309F4DDC0809172
:102B0000ED05898325E041E0BE016F5F7F4F85E0E1
:102B10000E942119882309F4D1C087E090E00E9427
:102B20002108898325E041E0BE016F5F7F4F86E089
:102B30000E942119882309F4C3C060E787E00E943E
:102B40005D186894CC24C3F8D12C0F2EFAE05F2EC8
:102B5000F02DE12CF12C10E03E0184E0680E711C98
:102B6000C8010E2C02C0959587950A94E2F780FF64
:102B70002EC091E09E15D8F0FE0131964F0156010E
:102B8000C5010E942108F40181934F01FFEFAF1AA4
:102B9000BF0A86149704A1F725E043E0BE016F5FEA
:102BA0007F4F852D0E942119811111C08BC0C70153
:102BB0000C960E942108898325E041E0BE016F5FE9
:102BC0007F4F852D0E942119882309F47DC08FEF46
:102BD000E81AF80A539493E0C90ED11CE6E0EE1609
:102BE000F10409F0BDCF88E090E00E9421088983BC
:102BF00089E090E00E9421088A838AE090E00E94A8
:102C000021088B8325E043E0BE016F5F7F4F80E1A9
:102C10000E942119811162C059C0C6010E94210879
:102C2000F701808325E041E0B701812F0E9421193F
:102C3000882309F44DC0FFEFCF1ADF0A8FEFE81A9F
:102C4000F80A1F5F173149F781E290E00E942108DE
:102C5000898325E041E0BE016F5F7F4F8DE10E94D7
:102C600021198823B9F182E290E00E94210889832A
:102C700025E041E0BE016F5F7F4F8CE10E9421198A
:102C8000882351F183E290E00E942108898325E0A6
:102C900041E0BE016F5F7F4F80E00E94211991E00B
:102CA000811126C090E024C090E022C090E020C0B6
:102CB00090E01EC090E01CC090E01AC090E018C0E8
:102CC00090E016C090E014C090E012C090E010C0F8
:102CD00090E00EC090E00CC090E00AC0FE0131967A
:102CE0007F0111E10F2EFBE1CF2ED12CF02D95CFDE
:102CF000892F26960FB6F894DEBF0FBECDBFDF91A9
:102D0000CF911F910F91FF90EF90DF90CF90BF90E8
:102D1000AF909F908F907F906F905F9008950F93EA
:102D20001F93CF93DF93EC01009799F488E090E034
:102D30000E942108CFE9D5E0888389E090E00E94D5
:102D4000210889838AE090E00E9421088A83CE01CD
:102D50001CC00697B4F48BE090E00E9421080FE9B4
:102D600015E0F80180838CE090E00E942108F801D2
:102D70008183CE010C960E942108F8018283C8014C
:102D800004C080E090E00E948F16DF91CF911F91E8
:102D90000F91089580E090E00E942108813049F071
:102DA00080E090E00E94210891E0823019F090E0EC
:102DB00001C091E0892F0895442389F0FB01A82FD9
:102DC000B92F2FEF240F30E02F5F3F4F620F731F9B
:102DD00091919D93E617F707D9F7842F01C080E002
:102DE000815008954423D1F0FC013081FB01208102
:102DF000321316C0FC013196DB011196415050E0B0
:102E00004F5F5F4F480F591F04C021919D912913B7
:102E100009C0E417F507C9F781E0089581E0089536
:102E200080E0089580E008959C01FC01AC014159C7
:102E30005F4F90A1907E90A311A212A213A214A2A0
:102E4000B596E417F507A9F7F901E159FF4F11828B
:102E50001082329611821082329610820895FC01FF
:102E6000ED58FF4F2081213009F132974081518187
:102E7000329720813181421753075CF032962081CE
:102E80003181329780819181A901481B590BCA0178
:102E90000895FC01EF58FF4F208131813297408126
:102EA0005181C9010396841B950B089583E090E03E
:102EB00008958F929F92AF92BF92EF92FF920F93DD
:102EC0001F93CF93DF93CDB7DEB7A5970FB6F894D6
:102ED000DEBF0FBECDBFFC01ED58FF4F2081211199
:102EE0004CC0FB018C017C0181E7E80EF11CD7018D
:102EF0004D915C911197CA01019611969C938E9306
:102F000085E2DE01119601900D928A95E1F729A1E3
:102F100035E2349FC001359F900D1124800F911F21
:102F2000422F4F71FC0120A38AA09BA0ACA0BDA0A2
:102F300081A292A2A3A2B4A2BE016F5F7F4F0E94A2
:102F4000DC16F70180819181039724F4F7018081D9
:102F5000918102C080E090E0F801EF58FF4F91832B
:102F600080832081318132978081918128173907B0
:102F700031F4349681E0808303C080E001C081E0B9
:102F8000A5960FB6F894DEBF0FBECDBFDF91CF91EF
:102F90001F910F91FF90EF90BF90AF909F908F90F7
:102FA00008950F931F93CF93DF93EC018B01CB0117
:102FB0000E942F17892B41F488A1807E88A319A233
:102FC0001AA21BA21CA213C0F801E159FF4F808175
:102FD000918125E2289FF001299FF00D1124E00F37
:102FE000F11F85E2DE0101900D928A95E1F7CE0195
:102FF000DF91CF911F910F910895FC01E159FF4F8F
:10300000208131812F5F3F4F318320832330310571
:103010001CF42081318102C020E030E0FC01E15944
:10302000FF4F318320833496108208950E946309F4
:1030300080E00E946B0984B1856084B9219885B1D4
:10304000866085B92898EBE6F0E080818260808315
:10305000E8E6F0E0808181608083089585E38A95C9
:10306000F1F70000289A8AE68A95F1F700C02898BF
:1030700085E38A95F1F700000895289A0895289825
:103080000895CF93C62F2A98E7ECF0E03197F1F737
:1030900000C00000F8940E947109F0EAFA95F1F777
:1030A0008C2F0E9471092A9A7894E7ECF0E031970E
:1030B000F1F700C00000CF9108958E3170F01F929B
:1030C0008F9389E892E09F938F930E94F60E0F9062
:1030D0000F900F900F908FEF0895805E0E9441181F
:1030E00008950F931F93CF93DF93D82F862F8A01D4
:1030F000C22F2A9895E39A95F1F70000F8940E9460
:10310000710985E38A95F1F70000CC23C1F0D11154
:1031100009C08FEF0E947109EC2FF0E0EF55FA4FD4
:10312000808307C0F801EC0FF11D319780810E9468
:10313000710995E39A95F1F70000C15041F72A9A79
:10314000789485E38A95F1F7000082EA95E0DF91B3
:10315000CF911F910F910895CF93DF931F92CDB719
:10316000DEB79FEF998321E0AE014F5F5F4F682F7D
:1031700080E00E947118FC0180810F90DF91CF9157
:103180000895811105C081E0603A61F480E00AC0D1
:10319000813029F4603A29F0605E80E003C080E06D
:1031A00001C080E091E089270E94711808951F9363
:1031B000CF93DF93EC01162F85E38A95F1F700009A
:1031C00081EE0E94AC18212FAE0160EA81E00E94DE
:1031D000C118DF91CF911F9108950F931F93CF9343
:1031E000DF93CDB7DEB79C010DB71EB78DB79EB785
:1031F000821B930B0FB6F8949EBF0FBE8DBF4DB7C9
:103200005EB74F5F5F4F95E39A95F1F70000121696
:1032100013064CF4FA01BA01620F731F9FEF9193EA
:10322000E617F707E1F761E680E00E94C1180FB6E4
:10323000F8941EBF0FBE0DBFDF91CF911F910F916C
:1032400008957F928F929F92AF92BF92CF92DF921A
:10325000EF92FF920F931F93CF93DF93CDB7DEB71B
:10326000982E7B01B42ECDB6DEB68DB79EB7841BEB
:1032700091090FB6F8949EBF0FBE8DBF4DB75EB7D4
:103280004F5F5F4F842E752EB11004C0211110C006
:10329000A12C5BC0FA019FEF9B0D892F90E0019656
:1032A000840F951F3FEF3193E817F907E1F7EECF51
:1032B000A22E6FEF82E992E00E948E0B6B2DC70168
:1032C0000E940E0D2B2DA701692D81E00E94C118CF
:1032D0002B2D482D572D692D80E00E94C1188C019F
:1032E0006FEF87E992E00E948E0B6B2DC8010E9460
:1032F0000E0DBB2029F1F7019081F8018081981310
:103300000DC0D7011196319690E004C02D918191A6
:10331000281304C09F5FB912F9CF15C06FEF8EE973
:1033200092E00E948E0BFFEF29E688E1F1502040E9
:103330008040E1F700C00000AA94A110BACF05C0F8
:10334000AA24A39402C0AA24A3948A2D0FB6F894A9
:10335000DEBE0FBECDBEDF91CF911F910F91FF90CA
:10336000EF90DF90CF90BF90AF909F908F907F9025
:1033700008950E94161808950E94CA16811102C06D
:103380000E94F8130E944D1408950E944D14089550
:103390009093E8058093E7057093EC056093EB0547
:1033A0005093EA054093E90508956091ED0585E0A5
:1033B0000E945D1880E090E00E948F1623E0AC012F
:1033C0006AE081E00E94C1186FE080E00E945D1811
:1033D0000E943D180895CF93DF93C82F0E943F1895
:1033E0006091ED0585E00E945D18D0E0CE010E945D
:1033F0008F1623E0AC016AE081E00E94C118CE0183
:103400000E948F1623E0AC0160E181E00E94C118A8
:103410006EE080E00E945D18DF91CF9108950F93D8
:103420001F93CF93DF93CDB7DEB7A5970FB6F89470
:10343000DEBF0FBECDBF8C0188EA92E00E94D40BA4
:10344000F80160A16F71C8010E94430DF80180A1CD
:103450008295869587700E94EB19F80160A16F71C3
:1034600070E0C8010E94D7180E942E1885E2F8016A
:10347000DE01119601900D928A95E1F789A1482FFE
:103480004F718093E2058AA19BA1ACA1BDA180935D
:10349000E3059093E405A093E505B093E605BE012E
:1034A0006F5F7F4F82EC95E00E94DC16A5960FB609
:1034B000F894DEBF0FBECDBFDF91CF911F910F916A
:1034C0000895CF92DF92EF92FF920F931F93CF93C5
:1034D000DF93CDB7DEB7A5970FB6F894DEBF0FBE6A
:1034E000CDBF87E00E94AC186894DD24D2F8C12CCF
:1034F0000F2EF1EBEF2EF2E0FF2EF02D87E00E9471
:10350000AC18982F907709F479C0DA94DD2009F48B
:1035100075C085FF11C060E287E00E945D18E091F0
:10352000EB05F091EC05309719F082EC95E00995E8
:103530008C2D8260C82EE2CF84FF11C060E187E04D
:103540000E945D18E091E905F091EA05309719F0C5
:1035500082EC95E00995EC2DE460CE2ECFCF86FF6E
:10356000CDCF87E00E94AC18182F1E701E3009F4D2
:1035700041C021E04FEF50E060E680E00E94C118BA
:10358000FC010081802F90E00E94ED181AA21BA27E
:103590001CA21DA2402FBC01CE0101960E94DC1688
:1035A0001295107F0F71102B19A360E487E00E9421
:1035B0005D1887E00E94AC1886FF0EC01F928F93A3
:1035C000FF92EF920E948D0F60E787E00E945D18E6
:1035D0000F900F900F900F90E091E705F091E805A4
:1035E000309719F0CE010196099587E10E94AC1839
:1035F00080FFB7CFFC2DF160CF2E80CF8C2DA5960C
:103600000FB6F894DEBF0FBECDBFDF91CF911F91F3
:103610000F91FF90EF90DF90CF900895CF92DF92BF
:10362000EF92FF920F931F93CF93DF9300D01F92DF
:10363000CDB7DEB76FEF8EEB92E00E948E0B0F2EB0
:10364000F6EFFF2EF02D00E010E00F2EFEE4CF2E5F
:10365000F1E0DF2EF02DE02E1F930F93DF92CF923B
:103660000E94F60E0F900F900F900F9081E08F1533
:1036700018F480E108130CC023E0AE014F5F5F4FE8
:103680006E2D80E00E94C11863E00E940E0D08C0FC
:1036900080E20E94860B802F0E94AC180E94AE0B25
:1036A0008AE00E94860B0F5F1F4FF39484E1F812AB
:1036B000D2CF0F900F900F90DF91CF911F910F916C
:1036C000FF90EF90DF90CF900895E2EEF5E08081DB
:1036D000807E80831092E3051092E4051092E50548
:1036E0001092E60508955058BB27AA270E948B1B0D
:1036F0000C94051D0E94F71C38F00E94FE1C20F05F
:1037000039F49F3F19F426F40C94F41C0EF4E09560
:10371000E7FB0C94EE1CE92F0E94161D58F3BA1714
:10372000620773078407950720F079F4A6F50C94D7
:10373000381D0EF4E0950B2EBA2FA02D0B01B90108
:1037400090010C01CA01A0011124FF27591B99F017
:10375000593F50F4503E68F11A16F040A22F232F23
:10376000342F4427585FF3CF469537952795A79573
:10377000F0405395C9F77EF41F16BA0B620B730B1A
:10378000840BBAF09150A1F0FF0FBB1F661F771F8B
:10379000881FC2F70EC0BA0F621F731F841F48F440
:1037A000879577956795B795F7959E3F08F0B0CFC9
:1037B0009395880F08F09927EE0F979587950895B0
:1037C0000E94CA1C08F481E008950E94F91B0C9421
:1037D000051D0E94FE1C58F00E94F71C40F029F4C1
:1037E0005F3F29F00C94EE1C51110C94391D0C9480
:1037F000F41C0E94161D68F39923B1F3552391F32D
:10380000951B550BBB27AA2762177307840738F04F
:103810009F5F5F4F220F331F441FAA1FA9F335D0AC
:103820000E2E3AF0E0E832D091505040E695001C60
:10383000CAF72BD0FE2F29D0660F771F881FBB1F1A
:10384000261737074807AB07B0E809F0BB0B802DF8
:10385000BF01FF2793585F4F3AF09E3F510578F024
:103860000C94EE1C0C94391D5F3FE4F3983ED4F3A6
:10387000869577956795B795F7959F5FC9F7880FF8
:10388000911D9695879597F90895E1E0660F771F4A
:10389000881FBB1F621773078407BA0720F0621BDB
:1038A000730B840BBA0BEE1F88F7E09508950E9406
:1038B0005E1C6894B1110C94391D08950E941E1D60
:1038C00088F09F5798F0B92F9927B751B0F0E1F0E1
:1038D000660F771F881F991F1AF0BA95C9F714C091
:1038E000B13091F00E94381DB1E008950C94381D5C
:1038F000672F782F8827B85F39F0B93FCCF38695CA
:1039000077956795B395D9F73EF490958095709526
:1039100061957F4F8F4F9F4F0895E89409C097FBA3
:103920003EF490958095709561957F4F8F4F9F4F96
:103930009923A9F0F92F96E9BB279395F6958795DA
:1039400077956795B795F111F8CFFAF4BB0F11F49D
:1039500060FF1BC06F5F7F4F8F4F9F4F16C0882344
:1039600011F096E911C0772321F09EE8872F762F7A
:1039700005C0662371F096E8862F70E060E02AF0BB
:103980009A95660F771F881FDAF7880F96958795A7
:1039900097F90895990F0008550FAA0BE0E8FEEF7C
:1039A00016161706E807F907C0F012161306E40703
:1039B000F50798F0621B730B840B950B39F40A26FC
:1039C00061F0232B242B252B21F408950A2609F4DA
:1039D000A140A6958FEF811D811D089597F99F67DE
:1039E00080E870E060E008959FEF80EC0895002487
:1039F0000A941616170618060906089500240A9454
:103A000012161306140605060895092E0394000CD9
:103A100011F4882352F0BB0F40F4BF2B11F460FF68
:103A200004C06F5F7F4F8F4F9F4F089557FD905891
:103A3000440F551F59F05F3F71F04795880F97FB72
:103A4000991F61F09F3F79F087950895121613062C
:103A50001406551FF2CF4695F1DF08C0161617065B
:103A60001806991FF1CF8695710561050894089590
:103A7000E894BB2766277727CB0197F908950E9422
:103A8000521D0C94051D0E94F71C38F00E94FE1C6C
:103A900020F0952311F00C94EE1C0C94F41C1124CE
:103AA0000C94391D0E94161D70F3959FC1F3950F5C
:103AB00050E0551F629FF001729FBB27F00DB11DB2
:103AC000639FAA27F00DB11DAA1F649F6627B00D42
:103AD000A11D661F829F2227B00DA11D621F739F2B
:103AE000B00DA11D621F839FA00D611D221F749F39
:103AF0003327A00D611D231F849F600D211D822F80
:103B0000762F6A2F11249F5750409AF0F1F08823A6
:103B10004AF0EE0FFF1FBB1F661F771F881F9150D3
:103B20005040A9F79E3F510580F00C94EE1C0C9478
:103B3000391D5F3FE4F3983ED4F3869577956795FA
:103B4000B795F795E7959F5FC1F7FE2B880F911DFD
:103B50009695879597F90895FA01EE0FFF1F309615
:103B600021053105A1F16115710561F48038BFE3CC
:103B70009B0749F168949038810561F08038BFEF68
:103B80009B0741F099234AF5FF3FE10531052105E7
:103B900019F1E8940894E795D901AA2329F4AB2FE9
:103BA000BE2FF85FD0F310C0FF5F70F4A695E0F76A
:103BB000F73950F019F0FF3A38F49F779F930DD002
:103BC0000F9007FC9058089546F00C94F41C60E0A8
:103BD00070E080E89FE308954FE79F775F934F93EE
:103BE0003F932F930E94A71E2F913F914F915F917A
:103BF0000E943F1D0C94041E29F416F00C94EE1C38
:103C00000C94381D0C94F41C0E941E1DA8F39638C9
:103C1000A0F707F80F92E8942BE33AEA48EB5FE746
:103C20000E94551D0F920F920F924DB75EB70F92E3
:103C30000E94EF1EE4ECF1E00E94361E4F915F916E
:103C4000EF91FF91E595EE1FFF1F49F0FE57E068E9
:103C50004427EE0F441FFA95E1F74195550B0E945A
:103C6000691E0F9007FE0C945D1E0895DF93CF939D
:103C70001F930F93FF92EF92DF927B018C01689468
:103C800006C0DA2EEF010E94521DFE01E894A591B4
:103C90002591359145915591A6F3EF010E948B1B1B
:103CA000FE019701A801DA9469F7DF90EF90FF9089
:103CB0000F911F91CF91DF9108959B01AC0160E0BE
:103CC00070E080E89FE30C94E51B0C94EE1C0C94D0
:103CD000231F0E941E1DD8F39923C9F3940F511D71
:103CE000A3F39150504094F059F0882332F0660FBE
:103CF000771F881F91505040C1F79E3F51052CF708
:103D0000880F911D9695879597F908955F3FACF0C0
:103D1000983E9CF0BB27869577956795B79508F4F4
:103D2000B1609395C1F7BB0F58F711F460FFE8CF6E
:103D30006F5F7F4F8F4F9F4FE3CF0C94391D16F06D
:103D40000C94231F0C94F41C68940C94EE1C0E9499
:103D50001E1DA8F39923C1F3AEF3DF93CF931F93F6
:103D60000F93FF92C92FDD2788232AF02197660F32
:103D7000771F881FDAF720E030E040E85FEB9FE331
:103D8000883920F0803E38F021968F770E94741B8E
:103D9000ECEEF1E004C00E94741BE9E1F2E00E9445
:103DA000361E8B01BE01EC01FB2E6F577109759514
:103DB000771F880B990B0E948F1C28E132E741E3A3
:103DC0005FE30E94521DAF2D9801AE01FF900F914D
:103DD0001F91CF91DF910E948B1B0C94051DFA015E
:103DE000DC01AA0FBB1F9B01AC01BF5728F422279F
:103DF00033274427507820C0B75190F4AB2F0024CC
:103E0000469537952795011CA395D2F3002071F0B4
:103E1000220F331F441FB395DAF30ED00C94731B9B
:103E200061307105A0E88A07B94630F49B01AC0106
:103E30006627772788279078309621F02083318372
:103E40004283538308959F3F31F0915020F487952A
:103E500077956795B795880F911D9695879597F9F2
:103E60000895AA1BBB1B51E107C0AA1FBB1FA617C1
:103E7000B70710F0A61BB70B881F991F5A95A9F713
:103E800080959095BC01CD010895A1E21A2EAA1B40
:103E9000BB1BFD010DC0AA1FBB1FEE1FFF1FA217FA
:103EA000B307E407F50720F0A21BB30BE40BF50BF7
:103EB000661F771F881F991F1A9469F76095709580
:103EC000809590959B01AC01BD01CF010895EE0F47
:103ED000FF1F0590F491E02D0994A29FB001B39FBC
:103EE000C001A39F700D811D1124911DB29F700D03
:103EF000811D1124911D0895FB01DC0105900D9297
:0A3F00000020E1F70895F894FFCFC8
:103F0A0077097709770977097709770977097709A7
:103F1A0030303030300030303030300069010A52F1
:103F2A0046207370656564206368616E6765642006
:103F3A00746F2025692025636270730055575520D8
:103F4A0033323850000A454550524F4D0A00257801
:103F5A00203D000A466F726D61743A204261642006
:103F6A007479706521203D20003031323334353682
:103F7A00373839414243444546000A53656E742036
:103F8A007C205025693A000A202041636B20696E23
:103F9A00202569206D73000A526563656976656438
:103FAA00207C205025693A000A20205B4D696E6505
:103FBA005D000A2020526573706F6E73653A202582
:103FCA0069206D73000A20205B4E6F74206D696E44
:103FDA00655D000A4E6F742064656C69766572656A
:103FEA0064207C205025693A000A3C4952513E001F
:103FFA000A556E657870656374656420496E7465E8
:10400A00727275707421000A5665722E312E330051
:10401A000A4C6F6164696E67204E5246000A4C6F03
:10402A006164696E67204E5246204661696C656418
:10403A000A000A4C6F61646564000A526573706F06
:10404A006E64696E67000A4952512054494D454FC2
:10405A00555421000A2120436F6D6D656E63696EA8
:10406A00672077697468206E6F495251206D6F64BA
:10407A0065000A52756E6E696E67205363616E6ED3
:10408A0065723A0A0025697C000A5725783A457212
:10409A0072000A52573A00207C2052523A00207C81
:1040AA00204661696C6564000A53656E64696E67CF
:1040BA00000A54434C52203D2030782578000A5299
:0A40CA0065676973746572730A007C
:00000001FF
